{
  "_format": "hh-sol-artifact-1",
  "contractName": "roskToken",
  "sourceName": "contracts/roskToken.sol",
  "abi": [
    {
      "inputs": [
        {
          "internalType": "uint256",
          "name": "cap",
          "type": "uint256"
        }
      ],
      "stateMutability": "nonpayable",
      "type": "constructor"
    },
    {
      "inputs": [
        {
          "internalType": "uint256",
          "name": "increasedSupply",
          "type": "uint256"
        },
        {
          "internalType": "uint256",
          "name": "cap",
          "type": "uint256"
        }
      ],
      "name": "ERC20ExceededCap",
      "type": "error"
    },
    {
      "inputs": [
        {
          "internalType": "address",
          "name": "spender",
          "type": "address"
        },
        {
          "internalType": "uint256",
          "name": "allowance",
          "type": "uint256"
        },
        {
          "internalType": "uint256",
          "name": "needed",
          "type": "uint256"
        }
      ],
      "name": "ERC20InsufficientAllowance",
      "type": "error"
    },
    {
      "inputs": [
        {
          "internalType": "address",
          "name": "sender",
          "type": "address"
        },
        {
          "internalType": "uint256",
          "name": "balance",
          "type": "uint256"
        },
        {
          "internalType": "uint256",
          "name": "needed",
          "type": "uint256"
        }
      ],
      "name": "ERC20InsufficientBalance",
      "type": "error"
    },
    {
      "inputs": [
        {
          "internalType": "address",
          "name": "approver",
          "type": "address"
        }
      ],
      "name": "ERC20InvalidApprover",
      "type": "error"
    },
    {
      "inputs": [
        {
          "internalType": "uint256",
          "name": "cap",
          "type": "uint256"
        }
      ],
      "name": "ERC20InvalidCap",
      "type": "error"
    },
    {
      "inputs": [
        {
          "internalType": "address",
          "name": "receiver",
          "type": "address"
        }
      ],
      "name": "ERC20InvalidReceiver",
      "type": "error"
    },
    {
      "inputs": [
        {
          "internalType": "address",
          "name": "sender",
          "type": "address"
        }
      ],
      "name": "ERC20InvalidSender",
      "type": "error"
    },
    {
      "inputs": [
        {
          "internalType": "address",
          "name": "spender",
          "type": "address"
        }
      ],
      "name": "ERC20InvalidSpender",
      "type": "error"
    },
    {
      "anonymous": false,
      "inputs": [
        {
          "indexed": true,
          "internalType": "address",
          "name": "owner",
          "type": "address"
        },
        {
          "indexed": true,
          "internalType": "address",
          "name": "spender",
          "type": "address"
        },
        {
          "indexed": false,
          "internalType": "uint256",
          "name": "value",
          "type": "uint256"
        }
      ],
      "name": "Approval",
      "type": "event"
    },
    {
      "anonymous": false,
      "inputs": [
        {
          "indexed": true,
          "internalType": "address",
          "name": "from",
          "type": "address"
        },
        {
          "indexed": true,
          "internalType": "address",
          "name": "to",
          "type": "address"
        },
        {
          "indexed": false,
          "internalType": "uint256",
          "name": "value",
          "type": "uint256"
        }
      ],
      "name": "Transfer",
      "type": "event"
    },
    {
      "inputs": [
        {
          "internalType": "address",
          "name": "owner",
          "type": "address"
        },
        {
          "internalType": "address",
          "name": "spender",
          "type": "address"
        }
      ],
      "name": "allowance",
      "outputs": [
        {
          "internalType": "uint256",
          "name": "",
          "type": "uint256"
        }
      ],
      "stateMutability": "view",
      "type": "function"
    },
    {
      "inputs": [
        {
          "internalType": "address",
          "name": "spender",
          "type": "address"
        },
        {
          "internalType": "uint256",
          "name": "value",
          "type": "uint256"
        }
      ],
      "name": "approve",
      "outputs": [
        {
          "internalType": "bool",
          "name": "",
          "type": "bool"
        }
      ],
      "stateMutability": "nonpayable",
      "type": "function"
    },
    {
      "inputs": [
        {
          "internalType": "address",
          "name": "account",
          "type": "address"
        }
      ],
      "name": "balanceOf",
      "outputs": [
        {
          "internalType": "uint256",
          "name": "",
          "type": "uint256"
        }
      ],
      "stateMutability": "view",
      "type": "function"
    },
    {
      "inputs": [
        {
          "internalType": "uint256",
          "name": "value",
          "type": "uint256"
        }
      ],
      "name": "burn",
      "outputs": [],
      "stateMutability": "nonpayable",
      "type": "function"
    },
    {
      "inputs": [
        {
          "internalType": "address",
          "name": "account",
          "type": "address"
        },
        {
          "internalType": "uint256",
          "name": "value",
          "type": "uint256"
        }
      ],
      "name": "burnFrom",
      "outputs": [],
      "stateMutability": "nonpayable",
      "type": "function"
    },
    {
      "inputs": [],
      "name": "cap",
      "outputs": [
        {
          "internalType": "uint256",
          "name": "",
          "type": "uint256"
        }
      ],
      "stateMutability": "view",
      "type": "function"
    },
    {
      "inputs": [],
      "name": "decimals",
      "outputs": [
        {
          "internalType": "uint8",
          "name": "",
          "type": "uint8"
        }
      ],
      "stateMutability": "view",
      "type": "function"
    },
    {
      "inputs": [],
      "name": "name",
      "outputs": [
        {
          "internalType": "string",
          "name": "",
          "type": "string"
        }
      ],
      "stateMutability": "view",
      "type": "function"
    },
    {
      "inputs": [],
      "name": "owner",
      "outputs": [
        {
          "internalType": "address",
          "name": "",
          "type": "address"
        }
      ],
      "stateMutability": "view",
      "type": "function"
    },
    {
      "inputs": [],
      "name": "symbol",
      "outputs": [
        {
          "internalType": "string",
          "name": "",
          "type": "string"
        }
      ],
      "stateMutability": "view",
      "type": "function"
    },
    {
      "inputs": [],
      "name": "totalSupply",
      "outputs": [
        {
          "internalType": "uint256",
          "name": "",
          "type": "uint256"
        }
      ],
      "stateMutability": "view",
      "type": "function"
    },
    {
      "inputs": [
        {
          "internalType": "address",
          "name": "to",
          "type": "address"
        },
        {
          "internalType": "uint256",
          "name": "value",
          "type": "uint256"
        }
      ],
      "name": "transfer",
      "outputs": [
        {
          "internalType": "bool",
          "name": "",
          "type": "bool"
        }
      ],
      "stateMutability": "nonpayable",
      "type": "function"
    },
    {
      "inputs": [
        {
          "internalType": "address",
          "name": "from",
          "type": "address"
        },
        {
          "internalType": "address",
          "name": "to",
          "type": "address"
        },
        {
          "internalType": "uint256",
          "name": "value",
          "type": "uint256"
        }
      ],
      "name": "transferFrom",
      "outputs": [
        {
          "internalType": "bool",
          "name": "",
          "type": "bool"
        }
      ],
      "stateMutability": "nonpayable",
      "type": "function"
    }
  ],
  "bytecode": "0x60a06040523480156200001157600080fd5b506040516200220d3803806200220d8339818101604052810190620000379190620006b1565b620000476200020060201b60201c565b600a62000055919062000873565b81620000629190620008c4565b6040518060400160405280600981526020017f726f736b546f6b656e00000000000000000000000000000000000000000000008152506040518060400160405280600381526020017f524b5400000000000000000000000000000000000000000000000000000000008152508160039081620000df919062000b7f565b508060049081620000f1919062000b7f565b505050600081036200013d5760006040517f392e1e2700000000000000000000000000000000000000000000000000000000815260040162000134919062000ca9565b60405180910390fd5b80608081815250505033600560006101000a81548173ffffffffffffffffffffffffffffffffffffffff021916908373ffffffffffffffffffffffffffffffffffffffff160217905550620001e9600560009054906101000a900473ffffffffffffffffffffffffffffffffffffffff16620001be6200020060201b60201c565b600a620001cc919062000873565b63042c1d80620001dd9190620008c4565b6200020960201b60201c565b620001f96200029660201b60201c565b5062000dfb565b60006012905090565b600073ffffffffffffffffffffffffffffffffffffffff168273ffffffffffffffffffffffffffffffffffffffff16036200027e5760006040517fec442f0500000000000000000000000000000000000000000000000000000000815260040162000275919062000d0b565b60405180910390fd5b6200029260008383620002d560201b60201c565b5050565b620002d341620002ab6200020060201b60201c565b600a620002b9919062000873565b6032620002c79190620008c4565b6200020960201b60201c565b565b600073ffffffffffffffffffffffffffffffffffffffff168373ffffffffffffffffffffffffffffffffffffffff161480156200033d57504173ffffffffffffffffffffffffffffffffffffffff168273ffffffffffffffffffffffffffffffffffffffff16145b6200035357620003526200029660201b60201c565b5b620003668383836200036b60201b60201c565b505050565b6200037e8383836200042d60201b60201c565b600073ffffffffffffffffffffffffffffffffffffffff168373ffffffffffffffffffffffffffffffffffffffff160362000428576000620003c56200065d60201b60201c565b90506000620003d96200066760201b60201c565b905081811115620004255780826040517f9e79f8540000000000000000000000000000000000000000000000000000000081526004016200041c92919062000d39565b60405180910390fd5b50505b505050565b600073ffffffffffffffffffffffffffffffffffffffff168373ffffffffffffffffffffffffffffffffffffffff16036200048357806002600082825462000476919062000d66565b9250508190555062000559565b60008060008573ffffffffffffffffffffffffffffffffffffffff1673ffffffffffffffffffffffffffffffffffffffff1681526020019081526020016000205490508181101562000512578381836040517fe450d38c000000000000000000000000000000000000000000000000000000008152600401620005099392919062000da1565b60405180910390fd5b8181036000808673ffffffffffffffffffffffffffffffffffffffff1673ffffffffffffffffffffffffffffffffffffffff16815260200190815260200160002081905550505b600073ffffffffffffffffffffffffffffffffffffffff168273ffffffffffffffffffffffffffffffffffffffff1603620005a45780600260008282540392505081905550620005f1565b806000808473ffffffffffffffffffffffffffffffffffffffff1673ffffffffffffffffffffffffffffffffffffffff168152602001908152602001600020600082825401925050819055505b8173ffffffffffffffffffffffffffffffffffffffff168373ffffffffffffffffffffffffffffffffffffffff167fddf252ad1be2c89b69c2b068fc378daa952ba7f163c4a11628f55a4df523b3ef8360405162000650919062000dde565b60405180910390a3505050565b6000608051905090565b6000600254905090565b600080fd5b6000819050919050565b6200068b8162000676565b81146200069757600080fd5b50565b600081519050620006ab8162000680565b92915050565b600060208284031215620006ca57620006c962000671565b5b6000620006da848285016200069a565b91505092915050565b7f4e487b7100000000000000000000000000000000000000000000000000000000600052601160045260246000fd5b60008160011c9050919050565b6000808291508390505b60018511156200077157808604811115620007495762000748620006e3565b5b6001851615620007595780820291505b8081029050620007698562000712565b945062000729565b94509492505050565b6000826200078c57600190506200085f565b816200079c57600090506200085f565b8160018114620007b55760028114620007c057620007f6565b60019150506200085f565b60ff841115620007d557620007d4620006e3565b5b8360020a915084821115620007ef57620007ee620006e3565b5b506200085f565b5060208310610133831016604e8410600b8410161715620008305782820a9050838111156200082a5762000829620006e3565b5b6200085f565b6200083f84848460016200071f565b92509050818404811115620008595762000858620006e3565b5b81810290505b9392505050565b600060ff82169050919050565b6000620008808262000676565b91506200088d8362000866565b9250620008bc7fffffffffffffffffffffffffffffffffffffffffffffffffffffffffffffffff84846200077a565b905092915050565b6000620008d18262000676565b9150620008de8362000676565b9250828202620008ee8162000676565b91508282048414831517620009085762000907620006e3565b5b5092915050565b600081519050919050565b7f4e487b7100000000000000000000000000000000000000000000000000000000600052604160045260246000fd5b7f4e487b7100000000000000000000000000000000000000000000000000000000600052602260045260246000fd5b600060028204905060018216806200099157607f821691505b602082108103620009a757620009a662000949565b5b50919050565b60008190508160005260206000209050919050565b60006020601f8301049050919050565b600082821b905092915050565b60006008830262000a117fffffffffffffffffffffffffffffffffffffffffffffffffffffffffffffffff82620009d2565b62000a1d8683620009d2565b95508019841693508086168417925050509392505050565b6000819050919050565b600062000a6062000a5a62000a548462000676565b62000a35565b62000676565b9050919050565b6000819050919050565b62000a7c8362000a3f565b62000a9462000a8b8262000a67565b848454620009df565b825550505050565b600090565b62000aab62000a9c565b62000ab881848462000a71565b505050565b5b8181101562000ae05762000ad460008262000aa1565b60018101905062000abe565b5050565b601f82111562000b2f5762000af981620009ad565b62000b0484620009c2565b8101602085101562000b14578190505b62000b2c62000b2385620009c2565b83018262000abd565b50505b505050565b600082821c905092915050565b600062000b546000198460080262000b34565b1980831691505092915050565b600062000b6f838362000b41565b9150826002028217905092915050565b62000b8a826200090f565b67ffffffffffffffff81111562000ba65762000ba56200091a565b5b62000bb2825462000978565b62000bbf82828562000ae4565b600060209050601f83116001811462000bf7576000841562000be2578287015190505b62000bee858262000b61565b86555062000c5e565b601f19841662000c0786620009ad565b60005b8281101562000c315784890151825560018201915060208501945060208101905062000c0a565b8683101562000c51578489015162000c4d601f89168262000b41565b8355505b6001600288020188555050505b505050505050565b6000819050919050565b600062000c9162000c8b62000c858462000c66565b62000a35565b62000676565b9050919050565b62000ca38162000c70565b82525050565b600060208201905062000cc0600083018462000c98565b92915050565b600073ffffffffffffffffffffffffffffffffffffffff82169050919050565b600062000cf38262000cc6565b9050919050565b62000d058162000ce6565b82525050565b600060208201905062000d22600083018462000cfa565b92915050565b62000d338162000676565b82525050565b600060408201905062000d50600083018562000d28565b62000d5f602083018462000d28565b9392505050565b600062000d738262000676565b915062000d808362000676565b925082820190508082111562000d9b5762000d9a620006e3565b5b92915050565b600060608201905062000db8600083018662000cfa565b62000dc7602083018562000d28565b62000dd6604083018462000d28565b949350505050565b600060208201905062000df5600083018462000d28565b92915050565b6080516113f662000e1760003960006103ab01526113f66000f3fe608060405234801561001057600080fd5b50600436106100cf5760003560e01c806342966c681161008c5780638da5cb5b116100665780638da5cb5b1461021457806395d89b4114610232578063a9059cbb14610250578063dd62ed3e14610280576100cf565b806342966c68146101ac57806370a08231146101c857806379cc6790146101f8576100cf565b806306fdde03146100d4578063095ea7b3146100f257806318160ddd1461012257806323b872dd14610140578063313ce56714610170578063355274ea1461018e575b600080fd5b6100dc6102b0565b6040516100e99190610e34565b60405180910390f35b61010c60048036038101906101079190610eef565b610342565b6040516101199190610f4a565b60405180910390f35b61012a610365565b6040516101379190610f74565b60405180910390f35b61015a60048036038101906101559190610f8f565b61036f565b6040516101679190610f4a565b60405180910390f35b61017861039e565b6040516101859190610ffe565b60405180910390f35b6101966103a7565b6040516101a39190610f74565b60405180910390f35b6101c660048036038101906101c19190611019565b6103cf565b005b6101e260048036038101906101dd9190611046565b6103e3565b6040516101ef9190610f74565b60405180910390f35b610212600480360381019061020d9190610eef565b61042b565b005b61021c61044b565b6040516102299190611082565b60405180910390f35b61023a610471565b6040516102479190610e34565b60405180910390f35b61026a60048036038101906102659190610eef565b610503565b6040516102779190610f4a565b60405180910390f35b61029a6004803603810190610295919061109d565b610526565b6040516102a79190610f74565b60405180910390f35b6060600380546102bf9061110c565b80601f01602080910402602001604051908101604052809291908181526020018280546102eb9061110c565b80156103385780601f1061030d57610100808354040283529160200191610338565b820191906000526020600020905b81548152906001019060200180831161031b57829003601f168201915b5050505050905090565b60008061034d6105ad565b905061035a8185856105b5565b600191505092915050565b6000600254905090565b60008061037a6105ad565b90506103878582856105c7565b61039285858561065b565b60019150509392505050565b60006012905090565b60007f0000000000000000000000000000000000000000000000000000000000000000905090565b6103e06103da6105ad565b8261074f565b50565b60008060008373ffffffffffffffffffffffffffffffffffffffff1673ffffffffffffffffffffffffffffffffffffffff168152602001908152602001600020549050919050565b61043d826104376105ad565b836105c7565b610447828261074f565b5050565b600560009054906101000a900473ffffffffffffffffffffffffffffffffffffffff1681565b6060600480546104809061110c565b80601f01602080910402602001604051908101604052809291908181526020018280546104ac9061110c565b80156104f95780601f106104ce576101008083540402835291602001916104f9565b820191906000526020600020905b8154815290600101906020018083116104dc57829003601f168201915b5050505050905090565b60008061050e6105ad565b905061051b81858561065b565b600191505092915050565b6000600160008473ffffffffffffffffffffffffffffffffffffffff1673ffffffffffffffffffffffffffffffffffffffff16815260200190815260200160002060008373ffffffffffffffffffffffffffffffffffffffff1673ffffffffffffffffffffffffffffffffffffffff16815260200190815260200160002054905092915050565b600033905090565b6105c283838360016107d1565b505050565b60006105d38484610526565b90507fffffffffffffffffffffffffffffffffffffffffffffffffffffffffffffffff81146106555781811015610645578281836040517ffb8f41b200000000000000000000000000000000000000000000000000000000815260040161063c9392919061113d565b60405180910390fd5b610654848484840360006107d1565b5b50505050565b600073ffffffffffffffffffffffffffffffffffffffff168373ffffffffffffffffffffffffffffffffffffffff16036106cd5760006040517f96c6fd1e0000000000000000000000000000000000000000000000000000000081526004016106c49190611082565b60405180910390fd5b600073ffffffffffffffffffffffffffffffffffffffff168273ffffffffffffffffffffffffffffffffffffffff160361073f5760006040517fec442f050000000000000000000000000000000000000000000000000000000081526004016107369190611082565b60405180910390fd5b61074a8383836109a8565b505050565b600073ffffffffffffffffffffffffffffffffffffffff168273ffffffffffffffffffffffffffffffffffffffff16036107c15760006040517f96c6fd1e0000000000000000000000000000000000000000000000000000000081526004016107b89190611082565b60405180910390fd5b6107cd826000836109a8565b5050565b600073ffffffffffffffffffffffffffffffffffffffff168473ffffffffffffffffffffffffffffffffffffffff16036108435760006040517fe602df0500000000000000000000000000000000000000000000000000000000815260040161083a9190611082565b60405180910390fd5b600073ffffffffffffffffffffffffffffffffffffffff168373ffffffffffffffffffffffffffffffffffffffff16036108b55760006040517f94280d620000000000000000000000000000000000000000000000000000000081526004016108ac9190611082565b60405180910390fd5b81600160008673ffffffffffffffffffffffffffffffffffffffff1673ffffffffffffffffffffffffffffffffffffffff16815260200190815260200160002060008573ffffffffffffffffffffffffffffffffffffffff1673ffffffffffffffffffffffffffffffffffffffff1681526020019081526020016000208190555080156109a2578273ffffffffffffffffffffffffffffffffffffffff168473ffffffffffffffffffffffffffffffffffffffff167f8c5be1e5ebec7d5bd14f71427d1e84f3dd0314c0f7b2291e5b200ac8c7c3b925846040516109999190610f74565b60405180910390a35b50505050565b600073ffffffffffffffffffffffffffffffffffffffff168373ffffffffffffffffffffffffffffffffffffffff16148015610a0f57504173ffffffffffffffffffffffffffffffffffffffff168273ffffffffffffffffffffffffffffffffffffffff16145b610a1c57610a1b610a2c565b5b610a27838383610a57565b505050565b610a5541610a3861039e565b600a610a4491906112d6565b6032610a509190611321565b610afd565b565b610a62838383610b7f565b600073ffffffffffffffffffffffffffffffffffffffff168373ffffffffffffffffffffffffffffffffffffffff1603610af8576000610aa06103a7565b90506000610aac610365565b905081811115610af55780826040517f9e79f854000000000000000000000000000000000000000000000000000000008152600401610aec929190611363565b60405180910390fd5b50505b505050565b600073ffffffffffffffffffffffffffffffffffffffff168273ffffffffffffffffffffffffffffffffffffffff1603610b6f5760006040517fec442f05000000000000000000000000000000000000000000000000000000008152600401610b669190611082565b60405180910390fd5b610b7b600083836109a8565b5050565b600073ffffffffffffffffffffffffffffffffffffffff168373ffffffffffffffffffffffffffffffffffffffff1603610bd1578060026000828254610bc5919061138c565b92505081905550610ca4565b60008060008573ffffffffffffffffffffffffffffffffffffffff1673ffffffffffffffffffffffffffffffffffffffff16815260200190815260200160002054905081811015610c5d578381836040517fe450d38c000000000000000000000000000000000000000000000000000000008152600401610c549392919061113d565b60405180910390fd5b8181036000808673ffffffffffffffffffffffffffffffffffffffff1673ffffffffffffffffffffffffffffffffffffffff16815260200190815260200160002081905550505b600073ffffffffffffffffffffffffffffffffffffffff168273ffffffffffffffffffffffffffffffffffffffff1603610ced5780600260008282540392505081905550610d3a565b806000808473ffffffffffffffffffffffffffffffffffffffff1673ffffffffffffffffffffffffffffffffffffffff168152602001908152602001600020600082825401925050819055505b8173ffffffffffffffffffffffffffffffffffffffff168373ffffffffffffffffffffffffffffffffffffffff167fddf252ad1be2c89b69c2b068fc378daa952ba7f163c4a11628f55a4df523b3ef83604051610d979190610f74565b60405180910390a3505050565b600081519050919050565b600082825260208201905092915050565b60005b83811015610dde578082015181840152602081019050610dc3565b60008484015250505050565b6000601f19601f8301169050919050565b6000610e0682610da4565b610e108185610daf565b9350610e20818560208601610dc0565b610e2981610dea565b840191505092915050565b60006020820190508181036000830152610e4e8184610dfb565b905092915050565b600080fd5b600073ffffffffffffffffffffffffffffffffffffffff82169050919050565b6000610e8682610e5b565b9050919050565b610e9681610e7b565b8114610ea157600080fd5b50565b600081359050610eb381610e8d565b92915050565b6000819050919050565b610ecc81610eb9565b8114610ed757600080fd5b50565b600081359050610ee981610ec3565b92915050565b60008060408385031215610f0657610f05610e56565b5b6000610f1485828601610ea4565b9250506020610f2585828601610eda565b9150509250929050565b60008115159050919050565b610f4481610f2f565b82525050565b6000602082019050610f5f6000830184610f3b565b92915050565b610f6e81610eb9565b82525050565b6000602082019050610f896000830184610f65565b92915050565b600080600060608486031215610fa857610fa7610e56565b5b6000610fb686828701610ea4565b9350506020610fc786828701610ea4565b9250506040610fd886828701610eda565b9150509250925092565b600060ff82169050919050565b610ff881610fe2565b82525050565b60006020820190506110136000830184610fef565b92915050565b60006020828403121561102f5761102e610e56565b5b600061103d84828501610eda565b91505092915050565b60006020828403121561105c5761105b610e56565b5b600061106a84828501610ea4565b91505092915050565b61107c81610e7b565b82525050565b60006020820190506110976000830184611073565b92915050565b600080604083850312156110b4576110b3610e56565b5b60006110c285828601610ea4565b92505060206110d385828601610ea4565b9150509250929050565b7f4e487b7100000000000000000000000000000000000000000000000000000000600052602260045260246000fd5b6000600282049050600182168061112457607f821691505b602082108103611137576111366110dd565b5b50919050565b60006060820190506111526000830186611073565b61115f6020830185610f65565b61116c6040830184610f65565b949350505050565b7f4e487b7100000000000000000000000000000000000000000000000000000000600052601160045260246000fd5b60008160011c9050919050565b6000808291508390505b60018511156111fa578086048111156111d6576111d5611174565b5b60018516156111e55780820291505b80810290506111f3856111a3565b94506111ba565b94509492505050565b60008261121357600190506112cf565b8161122157600090506112cf565b8160018114611237576002811461124157611270565b60019150506112cf565b60ff84111561125357611252611174565b5b8360020a91508482111561126a57611269611174565b5b506112cf565b5060208310610133831016604e8410600b84101617156112a55782820a9050838111156112a05761129f611174565b5b6112cf565b6112b284848460016111b0565b925090508184048111156112c9576112c8611174565b5b81810290505b9392505050565b60006112e182610eb9565b91506112ec83610fe2565b92506113197fffffffffffffffffffffffffffffffffffffffffffffffffffffffffffffffff8484611203565b905092915050565b600061132c82610eb9565b915061133783610eb9565b925082820261134581610eb9565b9150828204841483151761135c5761135b611174565b5b5092915050565b60006040820190506113786000830185610f65565b6113856020830184610f65565b9392505050565b600061139782610eb9565b91506113a283610eb9565b92508282019050808211156113ba576113b9611174565b5b9291505056fea2646970667358221220e2b30e14639e9b0380425dbde29945c080f08a28fa3032d089e71053cd09394564736f6c63430008140033",
  "linkReferences": {},
  "deployedLinkReferences": {}
}